{
  "_format": "hh-sol-artifact-1",
  "contractName": "Lender",
  "sourceName": "contracts/Lender.sol",
  "abi": [
    {
      "inputs": [
        {
          "internalType": "uint256",
          "name": "_interestRate",
          "type": "uint256"
        }
      ],
      "stateMutability": "nonpayable",
      "type": "constructor"
    },
    {
      "inputs": [
        {
          "internalType": "address",
          "name": "owner",
          "type": "address"
        }
      ],
      "name": "OwnableInvalidOwner",
      "type": "error"
    },
    {
      "inputs": [
        {
          "internalType": "address",
          "name": "account",
          "type": "address"
        }
      ],
      "name": "OwnableUnauthorizedAccount",
      "type": "error"
    },
    {
      "anonymous": false,
      "inputs": [
        {
          "indexed": true,
          "internalType": "address",
          "name": "previousOwner",
          "type": "address"
        },
        {
          "indexed": true,
          "internalType": "address",
          "name": "newOwner",
          "type": "address"
        }
      ],
      "name": "OwnershipTransferred",
      "type": "event"
    },
    {
      "inputs": [
        {
          "internalType": "uint256",
          "name": "_amount",
          "type": "uint256"
        },
        {
          "internalType": "address",
          "name": "_lenderAddress",
          "type": "address"
        }
      ],
      "name": "deposit",
      "outputs": [],
      "stateMutability": "nonpayable",
      "type": "function"
    },
    {
      "inputs": [],
      "name": "interestRate",
      "outputs": [
        {
          "internalType": "uint256",
          "name": "",
          "type": "uint256"
        }
      ],
      "stateMutability": "view",
      "type": "function"
    },
    {
      "inputs": [
        {
          "internalType": "address",
          "name": "",
          "type": "address"
        }
      ],
      "name": "lenders",
      "outputs": [
        {
          "internalType": "uint256",
          "name": "amount",
          "type": "uint256"
        },
        {
          "internalType": "uint256",
          "name": "depositTime",
          "type": "uint256"
        },
        {
          "internalType": "uint256",
          "name": "interestGainedTillLastUpdate",
          "type": "uint256"
        }
      ],
      "stateMutability": "view",
      "type": "function"
    },
    {
      "inputs": [],
      "name": "owner",
      "outputs": [
        {
          "internalType": "address",
          "name": "",
          "type": "address"
        }
      ],
      "stateMutability": "view",
      "type": "function"
    },
    {
      "inputs": [],
      "name": "renounceOwnership",
      "outputs": [],
      "stateMutability": "nonpayable",
      "type": "function"
    },
    {
      "inputs": [
        {
          "internalType": "uint256",
          "name": "_rate",
          "type": "uint256"
        }
      ],
      "name": "setInterestRate",
      "outputs": [],
      "stateMutability": "nonpayable",
      "type": "function"
    },
    {
      "inputs": [
        {
          "internalType": "address",
          "name": "_lenderAddress",
          "type": "address"
        }
      ],
      "name": "totalInterestGained",
      "outputs": [
        {
          "internalType": "uint256",
          "name": "",
          "type": "uint256"
        }
      ],
      "stateMutability": "view",
      "type": "function"
    },
    {
      "inputs": [
        {
          "internalType": "address",
          "name": "newOwner",
          "type": "address"
        }
      ],
      "name": "transferOwnership",
      "outputs": [],
      "stateMutability": "nonpayable",
      "type": "function"
    },
    {
      "inputs": [
        {
          "internalType": "address",
          "name": "_lenderAddress",
          "type": "address"
        }
      ],
      "name": "withdraw",
      "outputs": [
        {
          "internalType": "uint256",
          "name": "",
          "type": "uint256"
        }
      ],
      "stateMutability": "nonpayable",
      "type": "function"
    }
  ],
  "bytecode": "0x60806040523480156200001157600080fd5b5060405162000d7338038062000d738339818101604052810190620000379190620001d1565b33600073ffffffffffffffffffffffffffffffffffffffff168173ffffffffffffffffffffffffffffffffffffffff1603620000ad5760006040517f1e4fbdf7000000000000000000000000000000000000000000000000000000008152600401620000a4919062000248565b60405180910390fd5b620000be81620000cd60201b60201c565b50806001819055505062000265565b60008060009054906101000a900473ffffffffffffffffffffffffffffffffffffffff169050816000806101000a81548173ffffffffffffffffffffffffffffffffffffffff021916908373ffffffffffffffffffffffffffffffffffffffff1602179055508173ffffffffffffffffffffffffffffffffffffffff168173ffffffffffffffffffffffffffffffffffffffff167f8be0079c531659141344cd1fd0a4f28419497f9722a3daafe3b4186f6b6457e060405160405180910390a35050565b600080fd5b6000819050919050565b620001ab8162000196565b8114620001b757600080fd5b50565b600081519050620001cb81620001a0565b92915050565b600060208284031215620001ea57620001e962000191565b5b6000620001fa84828501620001ba565b91505092915050565b600073ffffffffffffffffffffffffffffffffffffffff82169050919050565b6000620002308262000203565b9050919050565b620002428162000223565b82525050565b60006020820190506200025f600083018462000237565b92915050565b610afe80620002756000396000f3fe608060405234801561001057600080fd5b50600436106100935760003560e01c80636e553f65116100665780636e553f6514610146578063715018a6146101625780637c3a00fd1461016c5780638da5cb5b1461018a578063f2fde38b146101a857610093565b806328fd10d71461009857806340d59939146100ca57806351cff8d9146100fa5780635f84f3021461012a575b600080fd5b6100b260048036038101906100ad9190610725565b6101c4565b6040516100c19392919061076b565b60405180910390f35b6100e460048036038101906100df9190610725565b6101ee565b6040516100f191906107a2565b60405180910390f35b610114600480360381019061010f9190610725565b610252565b60405161012191906107a2565b60405180910390f35b610144600480360381019061013f91906107e9565b610320565b005b610160600480360381019061015b9190610816565b610332565b005b61016a61041e565b005b610174610432565b60405161018191906107a2565b60405180910390f35b610192610438565b60405161019f9190610865565b60405180910390f35b6101c260048036038101906101bd9190610725565b610461565b005b60026020528060005260406000206000915090508060000154908060010154908060020154905083565b600080600260008473ffffffffffffffffffffffffffffffffffffffff1673ffffffffffffffffffffffffffffffffffffffff168152602001908152602001600020905061023b836104e7565b816002015461024a91906108af565b915050919050565b600061025c61056f565b6000600260008473ffffffffffffffffffffffffffffffffffffffff1673ffffffffffffffffffffffffffffffffffffffff168152602001908152602001600020905060008160000154116102e6576040517f08c379a00000000000000000000000000000000000000000000000000000000081526004016102dd90610940565b60405180910390fd5b60006102f1846101ee565b826000015461030091906108af565b905060008260000181905550600082600201819055508092505050919050565b61032861056f565b8060018190555050565b61033a61056f565b6000821161037d576040517f08c379a0000000000000000000000000000000000000000000000000000000008152600401610374906109d2565b60405180910390fd5b6000600260008373ffffffffffffffffffffffffffffffffffffffff1673ffffffffffffffffffffffffffffffffffffffff168152602001908152602001600020905060008160000154036103e357828160000181905550428160010181905550610419565b6103ec826101ee565b81600201819055508281600001600082825461040891906108af565b925050819055504281600101819055505b505050565b61042661056f565b61043060006105f6565b565b60015481565b60008060009054906101000a900473ffffffffffffffffffffffffffffffffffffffff16905090565b61046961056f565b600073ffffffffffffffffffffffffffffffffffffffff168173ffffffffffffffffffffffffffffffffffffffff16036104db5760006040517f1e4fbdf70000000000000000000000000000000000000000000000000000000081526004016104d29190610865565b60405180910390fd5b6104e4816105f6565b50565b600080600260008473ffffffffffffffffffffffffffffffffffffffff1673ffffffffffffffffffffffffffffffffffffffff168152602001908152602001600020905064496cebb80081600101544261054191906109f2565b60015483600001546105539190610a26565b61055d9190610a26565b6105679190610a97565b915050919050565b6105776106ba565b73ffffffffffffffffffffffffffffffffffffffff16610595610438565b73ffffffffffffffffffffffffffffffffffffffff16146105f4576105b86106ba565b6040517f118cdaa70000000000000000000000000000000000000000000000000000000081526004016105eb9190610865565b60405180910390fd5b565b60008060009054906101000a900473ffffffffffffffffffffffffffffffffffffffff169050816000806101000a81548173ffffffffffffffffffffffffffffffffffffffff021916908373ffffffffffffffffffffffffffffffffffffffff1602179055508173ffffffffffffffffffffffffffffffffffffffff168173ffffffffffffffffffffffffffffffffffffffff167f8be0079c531659141344cd1fd0a4f28419497f9722a3daafe3b4186f6b6457e060405160405180910390a35050565b600033905090565b600080fd5b600073ffffffffffffffffffffffffffffffffffffffff82169050919050565b60006106f2826106c7565b9050919050565b610702816106e7565b811461070d57600080fd5b50565b60008135905061071f816106f9565b92915050565b60006020828403121561073b5761073a6106c2565b5b600061074984828501610710565b91505092915050565b6000819050919050565b61076581610752565b82525050565b6000606082019050610780600083018661075c565b61078d602083018561075c565b61079a604083018461075c565b949350505050565b60006020820190506107b7600083018461075c565b92915050565b6107c681610752565b81146107d157600080fd5b50565b6000813590506107e3816107bd565b92915050565b6000602082840312156107ff576107fe6106c2565b5b600061080d848285016107d4565b91505092915050565b6000806040838503121561082d5761082c6106c2565b5b600061083b858286016107d4565b925050602061084c85828601610710565b9150509250929050565b61085f816106e7565b82525050565b600060208201905061087a6000830184610856565b92915050565b7f4e487b7100000000000000000000000000000000000000000000000000000000600052601160045260246000fd5b60006108ba82610752565b91506108c583610752565b92508282019050808211156108dd576108dc610880565b5b92915050565b600082825260208201905092915050565b7f4e6f2066756e647320746f207769746864726177000000000000000000000000600082015250565b600061092a6014836108e3565b9150610935826108f4565b602082019050919050565b600060208201905081810360008301526109598161091d565b9050919050565b7f4465706f73697420616d6f756e74206d7573742062652067726561746572207460008201527f68616e207a65726f000000000000000000000000000000000000000000000000602082015250565b60006109bc6028836108e3565b91506109c782610960565b604082019050919050565b600060208201905081810360008301526109eb816109af565b9050919050565b60006109fd82610752565b9150610a0883610752565b9250828203905081811115610a2057610a1f610880565b5b92915050565b6000610a3182610752565b9150610a3c83610752565b9250828202610a4a81610752565b91508282048414831517610a6157610a60610880565b5b5092915050565b7f4e487b7100000000000000000000000000000000000000000000000000000000600052601260045260246000fd5b6000610aa282610752565b9150610aad83610752565b925082610abd57610abc610a68565b5b82820490509291505056fea26469706673582212209cb6371da4d078d9052b29bcd0cbc12ce20db95c150d7af13bc9222501e3180664736f6c63430008180033",
  "linkReferences": {},
  "deployedLinkReferences": {}
}