{
  "_format": "hh-sol-artifact-1",
  "contractName": "Lender",
  "sourceName": "contracts/Lender.sol",
  "abi": [
    {
      "inputs": [
        {
          "internalType": "uint256",
          "name": "_interestRate",
          "type": "uint256"
        }
      ],
      "stateMutability": "nonpayable",
      "type": "constructor"
    },
    {
      "inputs": [
        {
          "internalType": "address",
          "name": "owner",
          "type": "address"
        }
      ],
      "name": "OwnableInvalidOwner",
      "type": "error"
    },
    {
      "inputs": [
        {
          "internalType": "address",
          "name": "account",
          "type": "address"
        }
      ],
      "name": "OwnableUnauthorizedAccount",
      "type": "error"
    },
    {
      "anonymous": false,
      "inputs": [
        {
          "indexed": true,
          "internalType": "address",
          "name": "previousOwner",
          "type": "address"
        },
        {
          "indexed": true,
          "internalType": "address",
          "name": "newOwner",
          "type": "address"
        }
      ],
      "name": "OwnershipTransferred",
      "type": "event"
    },
    {
      "inputs": [
        {
          "internalType": "uint256",
          "name": "_amount",
          "type": "uint256"
        },
        {
          "internalType": "address",
          "name": "_lenderAddress",
          "type": "address"
        }
      ],
      "name": "deposit",
      "outputs": [],
      "stateMutability": "nonpayable",
      "type": "function"
    },
    {
      "inputs": [
        {
          "internalType": "address",
          "name": "_lenderAddress",
          "type": "address"
        }
      ],
      "name": "interestGained",
      "outputs": [
        {
          "internalType": "uint256",
          "name": "",
          "type": "uint256"
        }
      ],
      "stateMutability": "view",
      "type": "function"
    },
    {
      "inputs": [],
      "name": "interestRate",
      "outputs": [
        {
          "internalType": "uint256",
          "name": "",
          "type": "uint256"
        }
      ],
      "stateMutability": "view",
      "type": "function"
    },
    {
      "inputs": [
        {
          "internalType": "address",
          "name": "",
          "type": "address"
        }
      ],
      "name": "lenders",
      "outputs": [
        {
          "internalType": "uint256",
          "name": "amount",
          "type": "uint256"
        },
        {
          "internalType": "uint256",
          "name": "depositTime",
          "type": "uint256"
        }
      ],
      "stateMutability": "view",
      "type": "function"
    },
    {
      "inputs": [],
      "name": "owner",
      "outputs": [
        {
          "internalType": "address",
          "name": "",
          "type": "address"
        }
      ],
      "stateMutability": "view",
      "type": "function"
    },
    {
      "inputs": [],
      "name": "renounceOwnership",
      "outputs": [],
      "stateMutability": "nonpayable",
      "type": "function"
    },
    {
      "inputs": [
        {
          "internalType": "uint256",
          "name": "_rate",
          "type": "uint256"
        }
      ],
      "name": "setInterestRate",
      "outputs": [],
      "stateMutability": "nonpayable",
      "type": "function"
    },
    {
      "inputs": [
        {
          "internalType": "address",
          "name": "newOwner",
          "type": "address"
        }
      ],
      "name": "transferOwnership",
      "outputs": [],
      "stateMutability": "nonpayable",
      "type": "function"
    },
    {
      "inputs": [
        {
          "internalType": "address",
          "name": "_lenderAddress",
          "type": "address"
        }
      ],
      "name": "withdraw",
      "outputs": [
        {
          "internalType": "uint256",
          "name": "",
          "type": "uint256"
        }
      ],
      "stateMutability": "nonpayable",
      "type": "function"
    }
  ],
  "bytecode": "0x60806040523480156200001157600080fd5b5060405162000d0438038062000d048339818101604052810190620000379190620001d1565b33600073ffffffffffffffffffffffffffffffffffffffff168173ffffffffffffffffffffffffffffffffffffffff1603620000ad5760006040517f1e4fbdf7000000000000000000000000000000000000000000000000000000008152600401620000a4919062000248565b60405180910390fd5b620000be81620000cd60201b60201c565b50806001819055505062000265565b60008060009054906101000a900473ffffffffffffffffffffffffffffffffffffffff169050816000806101000a81548173ffffffffffffffffffffffffffffffffffffffff021916908373ffffffffffffffffffffffffffffffffffffffff1602179055508173ffffffffffffffffffffffffffffffffffffffff168173ffffffffffffffffffffffffffffffffffffffff167f8be0079c531659141344cd1fd0a4f28419497f9722a3daafe3b4186f6b6457e060405160405180910390a35050565b600080fd5b6000819050919050565b620001ab8162000196565b8114620001b757600080fd5b50565b600081519050620001cb81620001a0565b92915050565b600060208284031215620001ea57620001e962000191565b5b6000620001fa84828501620001ba565b91505092915050565b600073ffffffffffffffffffffffffffffffffffffffff82169050919050565b6000620002308262000203565b9050919050565b620002428162000223565b82525050565b60006020820190506200025f600083018462000237565b92915050565b610a8f80620002756000396000f3fe608060405234801561001057600080fd5b50600436106100935760003560e01c8063715018a611610066578063715018a6146101315780637c3a00fd1461013b5780638da5cb5b14610159578063ddc19d1914610177578063f2fde38b146101a757610093565b806328fd10d71461009857806351cff8d9146100c95780635f84f302146100f95780636e553f6514610115575b600080fd5b6100b260048036038101906100ad91906106c4565b6101c3565b6040516100c092919061070a565b60405180910390f35b6100e360048036038101906100de91906106c4565b6101e7565b6040516100f09190610733565b60405180910390f35b610113600480360381019061010e919061077a565b6102ab565b005b61012f600480360381019061012a91906107a7565b6102bd565b005b6101396103bd565b005b6101436103d1565b6040516101509190610733565b60405180910390f35b6101616103d7565b60405161016e91906107f6565b60405180910390f35b610191600480360381019061018c91906106c4565b610400565b60405161019e9190610733565b60405180910390f35b6101c160048036038101906101bc91906106c4565b610488565b005b60026020528060005260406000206000915090508060000154908060010154905082565b60006101f161050e565b6000600260008473ffffffffffffffffffffffffffffffffffffffff1673ffffffffffffffffffffffffffffffffffffffff1681526020019081526020016000209050600081600001541161027b576040517f08c379a00000000000000000000000000000000000000000000000000000000081526004016102729061086e565b60405180910390fd5b600061028684610400565b826000015461029591906108bd565b9050600082600001819055508092505050919050565b6102b361050e565b8060018190555050565b6102c561050e565b60008211610308576040517f08c379a00000000000000000000000000000000000000000000000000000000081526004016102ff90610963565b60405180910390fd5b6000600260008373ffffffffffffffffffffffffffffffffffffffff1673ffffffffffffffffffffffffffffffffffffffff16815260200190815260200160002090506000816000015403610380578281600001600082825461036b91906108bd565b925050819055504281600101819055506103b8565b8261038a83610400565b61039491906108bd565b8160000160008282546103a791906108bd565b925050819055504281600101819055505b505050565b6103c561050e565b6103cf6000610595565b565b60015481565b60008060009054906101000a900473ffffffffffffffffffffffffffffffffffffffff16905090565b600080600260008473ffffffffffffffffffffffffffffffffffffffff1673ffffffffffffffffffffffffffffffffffffffff168152602001908152602001600020905064496cebb80081600101544261045a9190610983565b600154836000015461046c91906109b7565b61047691906109b7565b6104809190610a28565b915050919050565b61049061050e565b600073ffffffffffffffffffffffffffffffffffffffff168173ffffffffffffffffffffffffffffffffffffffff16036105025760006040517f1e4fbdf70000000000000000000000000000000000000000000000000000000081526004016104f991906107f6565b60405180910390fd5b61050b81610595565b50565b610516610659565b73ffffffffffffffffffffffffffffffffffffffff166105346103d7565b73ffffffffffffffffffffffffffffffffffffffff161461059357610557610659565b6040517f118cdaa700000000000000000000000000000000000000000000000000000000815260040161058a91906107f6565b60405180910390fd5b565b60008060009054906101000a900473ffffffffffffffffffffffffffffffffffffffff169050816000806101000a81548173ffffffffffffffffffffffffffffffffffffffff021916908373ffffffffffffffffffffffffffffffffffffffff1602179055508173ffffffffffffffffffffffffffffffffffffffff168173ffffffffffffffffffffffffffffffffffffffff167f8be0079c531659141344cd1fd0a4f28419497f9722a3daafe3b4186f6b6457e060405160405180910390a35050565b600033905090565b600080fd5b600073ffffffffffffffffffffffffffffffffffffffff82169050919050565b600061069182610666565b9050919050565b6106a181610686565b81146106ac57600080fd5b50565b6000813590506106be81610698565b92915050565b6000602082840312156106da576106d9610661565b5b60006106e8848285016106af565b91505092915050565b6000819050919050565b610704816106f1565b82525050565b600060408201905061071f60008301856106fb565b61072c60208301846106fb565b9392505050565b600060208201905061074860008301846106fb565b92915050565b610757816106f1565b811461076257600080fd5b50565b6000813590506107748161074e565b92915050565b6000602082840312156107905761078f610661565b5b600061079e84828501610765565b91505092915050565b600080604083850312156107be576107bd610661565b5b60006107cc85828601610765565b92505060206107dd858286016106af565b9150509250929050565b6107f081610686565b82525050565b600060208201905061080b60008301846107e7565b92915050565b600082825260208201905092915050565b7f4e6f2066756e647320746f207769746864726177000000000000000000000000600082015250565b6000610858601483610811565b915061086382610822565b602082019050919050565b600060208201905081810360008301526108878161084b565b9050919050565b7f4e487b7100000000000000000000000000000000000000000000000000000000600052601160045260246000fd5b60006108c8826106f1565b91506108d3836106f1565b92508282019050808211156108eb576108ea61088e565b5b92915050565b7f4465706f73697420616d6f756e74206d7573742062652067726561746572207460008201527f68616e207a65726f000000000000000000000000000000000000000000000000602082015250565b600061094d602883610811565b9150610958826108f1565b604082019050919050565b6000602082019050818103600083015261097c81610940565b9050919050565b600061098e826106f1565b9150610999836106f1565b92508282039050818111156109b1576109b061088e565b5b92915050565b60006109c2826106f1565b91506109cd836106f1565b92508282026109db816106f1565b915082820484148315176109f2576109f161088e565b5b5092915050565b7f4e487b7100000000000000000000000000000000000000000000000000000000600052601260045260246000fd5b6000610a33826106f1565b9150610a3e836106f1565b925082610a4e57610a4d6109f9565b5b82820490509291505056fea26469706673582212201c8a01b90863d6262bb71776e7fb65fa61062e1644a5f7dfc0846e12458a0d0964736f6c63430008180033",
  "linkReferences": {},
  "deployedLinkReferences": {}
}