{
  "_format": "hh-sol-artifact-1",
  "contractName": "Borrower",
  "sourceName": "contracts/Borrower.sol",
  "abi": [
    {
      "inputs": [
        {
          "internalType": "uint256",
          "name": "_interestRate",
          "type": "uint256"
        }
      ],
      "stateMutability": "nonpayable",
      "type": "constructor"
    },
    {
      "inputs": [
        {
          "internalType": "address",
          "name": "owner",
          "type": "address"
        }
      ],
      "name": "OwnableInvalidOwner",
      "type": "error"
    },
    {
      "inputs": [
        {
          "internalType": "address",
          "name": "account",
          "type": "address"
        }
      ],
      "name": "OwnableUnauthorizedAccount",
      "type": "error"
    },
    {
      "anonymous": false,
      "inputs": [
        {
          "indexed": true,
          "internalType": "address",
          "name": "previousOwner",
          "type": "address"
        },
        {
          "indexed": true,
          "internalType": "address",
          "name": "newOwner",
          "type": "address"
        }
      ],
      "name": "OwnershipTransferred",
      "type": "event"
    },
    {
      "inputs": [
        {
          "internalType": "uint256",
          "name": "_amount",
          "type": "uint256"
        },
        {
          "internalType": "uint256",
          "name": "_loanDuration",
          "type": "uint256"
        },
        {
          "internalType": "address",
          "name": "_borrowerAddress",
          "type": "address"
        }
      ],
      "name": "borrow",
      "outputs": [],
      "stateMutability": "nonpayable",
      "type": "function"
    },
    {
      "inputs": [
        {
          "internalType": "address",
          "name": "",
          "type": "address"
        }
      ],
      "name": "borrowers",
      "outputs": [
        {
          "internalType": "uint256",
          "name": "stackedTokens",
          "type": "uint256"
        },
        {
          "internalType": "uint256",
          "name": "loanAmount",
          "type": "uint256"
        },
        {
          "internalType": "uint256",
          "name": "repaymentAmount",
          "type": "uint256"
        },
        {
          "internalType": "uint256",
          "name": "borrowTime",
          "type": "uint256"
        },
        {
          "internalType": "uint256",
          "name": "loanDuration",
          "type": "uint256"
        }
      ],
      "stateMutability": "view",
      "type": "function"
    },
    {
      "inputs": [
        {
          "internalType": "address",
          "name": "_borrowerAddress",
          "type": "address"
        }
      ],
      "name": "claimCollateral",
      "outputs": [],
      "stateMutability": "nonpayable",
      "type": "function"
    },
    {
      "inputs": [],
      "name": "collateralAmount",
      "outputs": [
        {
          "internalType": "uint256",
          "name": "",
          "type": "uint256"
        }
      ],
      "stateMutability": "view",
      "type": "function"
    },
    {
      "inputs": [],
      "name": "interestRate",
      "outputs": [
        {
          "internalType": "uint256",
          "name": "",
          "type": "uint256"
        }
      ],
      "stateMutability": "view",
      "type": "function"
    },
    {
      "inputs": [],
      "name": "owner",
      "outputs": [
        {
          "internalType": "address",
          "name": "",
          "type": "address"
        }
      ],
      "stateMutability": "view",
      "type": "function"
    },
    {
      "inputs": [],
      "name": "renounceOwnership",
      "outputs": [],
      "stateMutability": "nonpayable",
      "type": "function"
    },
    {
      "inputs": [
        {
          "internalType": "uint256",
          "name": "_amount",
          "type": "uint256"
        },
        {
          "internalType": "address",
          "name": "_borrowerAddress",
          "type": "address"
        }
      ],
      "name": "repay",
      "outputs": [
        {
          "internalType": "uint256",
          "name": "",
          "type": "uint256"
        }
      ],
      "stateMutability": "nonpayable",
      "type": "function"
    },
    {
      "inputs": [
        {
          "internalType": "address",
          "name": "_borrowerAddress",
          "type": "address"
        }
      ],
      "name": "resetStackedTokens",
      "outputs": [],
      "stateMutability": "nonpayable",
      "type": "function"
    },
    {
      "inputs": [
        {
          "internalType": "uint256",
          "name": "_rate",
          "type": "uint256"
        }
      ],
      "name": "setInterestRate",
      "outputs": [],
      "stateMutability": "nonpayable",
      "type": "function"
    },
    {
      "inputs": [
        {
          "internalType": "uint256",
          "name": "_stackedTokens",
          "type": "uint256"
        },
        {
          "internalType": "address",
          "name": "_borrowerAddress",
          "type": "address"
        }
      ],
      "name": "stakeTokens",
      "outputs": [],
      "stateMutability": "nonpayable",
      "type": "function"
    },
    {
      "inputs": [
        {
          "internalType": "address",
          "name": "newOwner",
          "type": "address"
        }
      ],
      "name": "transferOwnership",
      "outputs": [],
      "stateMutability": "nonpayable",
      "type": "function"
    }
  ],
  "bytecode": "0x60806040523480156200001157600080fd5b50604051620011da380380620011da8339818101604052810190620000379190620001d1565b33600073ffffffffffffffffffffffffffffffffffffffff168173ffffffffffffffffffffffffffffffffffffffff1603620000ad5760006040517f1e4fbdf7000000000000000000000000000000000000000000000000000000008152600401620000a4919062000248565b60405180910390fd5b620000be81620000cd60201b60201c565b50806001819055505062000265565b60008060009054906101000a900473ffffffffffffffffffffffffffffffffffffffff169050816000806101000a81548173ffffffffffffffffffffffffffffffffffffffff021916908373ffffffffffffffffffffffffffffffffffffffff1602179055508173ffffffffffffffffffffffffffffffffffffffff168173ffffffffffffffffffffffffffffffffffffffff167f8be0079c531659141344cd1fd0a4f28419497f9722a3daafe3b4186f6b6457e060405160405180910390a35050565b600080fd5b6000819050919050565b620001ab8162000196565b8114620001b757600080fd5b50565b600081519050620001cb81620001a0565b92915050565b600060208284031215620001ea57620001e962000191565b5b6000620001fa84828501620001ba565b91505092915050565b600073ffffffffffffffffffffffffffffffffffffffff82169050919050565b6000620002308262000203565b9050919050565b620002428162000223565b82525050565b60006020820190506200025f600083018462000237565b92915050565b610f6580620002756000396000f3fe608060405234801561001057600080fd5b50600436106100b45760003560e01c80639106175911610071578063910617591461015357806392d09ceb1461016f578063acb708151461018d578063bf5d50c4146101bd578063d6bda0c0146101f1578063f2fde38b1461020d576100b4565b80630bea440d146100b95780635f84f302146100d5578063715018a6146100f15780637c3a00fd146100fb5780638235b284146101195780638da5cb5b14610135575b600080fd5b6100d360048036038101906100ce91906109a3565b610229565b005b6100ef60048036038101906100ea91906109e3565b61028e565b005b6100f96102a0565b005b6101036102b4565b6040516101109190610a1f565b60405180910390f35b610133600480360381019061012e9190610a3a565b6102ba565b005b61013d6103dd565b60405161014a9190610a76565b60405180910390f35b61016d60048036038101906101689190610a3a565b610406565b005b610177610459565b6040516101849190610a1f565b60405180910390f35b6101a760048036038101906101a291906109a3565b61045e565b6040516101b49190610a1f565b60405180910390f35b6101d760048036038101906101d29190610a3a565b6105c4565b6040516101e8959493929190610a91565b60405180910390f35b61020b60048036038101906102069190610ae4565b6105fa565b005b61022760048036038101906102229190610a3a565b610731565b005b6102316107b7565b81600260008373ffffffffffffffffffffffffffffffffffffffff1673ffffffffffffffffffffffffffffffffffffffff16815260200190815260200160002060000160008282546102839190610b66565b925050819055505050565b6102966107b7565b8060018190555050565b6102a86107b7565b6102b2600061083e565b565b60015481565b6102c26107b7565b6000600260008373ffffffffffffffffffffffffffffffffffffffff1673ffffffffffffffffffffffffffffffffffffffff1681526020019081526020016000209050600081600001541161034c576040517f08c379a000000000000000000000000000000000000000000000000000000000815260040161034390610bf7565b60405180910390fd5b600081600301544261035e9190610c17565b9050816004015481116103a6576040517f08c379a000000000000000000000000000000000000000000000000000000000815260040161039d90610c97565b60405180910390fd5b6000826000018190555060008260020181905550600082600301819055506000826004018190555060008260010181905550505050565b60008060009054906101000a900473ffffffffffffffffffffffffffffffffffffffff16905090565b61040e6107b7565b6000600260008373ffffffffffffffffffffffffffffffffffffffff1673ffffffffffffffffffffffffffffffffffffffff1681526020019081526020016000206000018190555050565b606481565b60006104686107b7565b600083116104ab576040517f08c379a00000000000000000000000000000000000000000000000000000000081526004016104a290610d29565b60405180910390fd5b6000600260008473ffffffffffffffffffffffffffffffffffffffff1673ffffffffffffffffffffffffffffffffffffffff168152602001908152602001600020905060008160030154426105009190610c17565b90508160040154811115610549576040517f08c379a000000000000000000000000000000000000000000000000000000000815260040161054090610d95565b60405180910390fd5b6000826002015486101561057d578583600201600082825461056b9190610c17565b925050819055508093505050506105be565b82600201548661058d9190610c17565b9050600083600201819055506000836003018190555060008360040181905550600083600101819055508093505050505b92915050565b60026020528060005260406000206000915090508060000154908060010154908060020154908060030154908060040154905085565b6106026107b7565b6000600260008373ffffffffffffffffffffffffffffffffffffffff1673ffffffffffffffffffffffffffffffffffffffff168152602001908152602001600020905060648160000154101561068d576040517f08c379a000000000000000000000000000000000000000000000000000000000815260040161068490610e01565b60405180910390fd5b60008160020154146106d4576040517f08c379a00000000000000000000000000000000000000000000000000000000081526004016106cb90610e6d565b60405180910390fd5b42816003018190555082816004018190555083816001018190555064496cebb80083600154866107049190610e8d565b61070e9190610e8d565b6107189190610efe565b846107239190610b66565b816002018190555050505050565b6107396107b7565b600073ffffffffffffffffffffffffffffffffffffffff168173ffffffffffffffffffffffffffffffffffffffff16036107ab5760006040517f1e4fbdf70000000000000000000000000000000000000000000000000000000081526004016107a29190610a76565b60405180910390fd5b6107b48161083e565b50565b6107bf610902565b73ffffffffffffffffffffffffffffffffffffffff166107dd6103dd565b73ffffffffffffffffffffffffffffffffffffffff161461083c57610800610902565b6040517f118cdaa70000000000000000000000000000000000000000000000000000000081526004016108339190610a76565b60405180910390fd5b565b60008060009054906101000a900473ffffffffffffffffffffffffffffffffffffffff169050816000806101000a81548173ffffffffffffffffffffffffffffffffffffffff021916908373ffffffffffffffffffffffffffffffffffffffff1602179055508173ffffffffffffffffffffffffffffffffffffffff168173ffffffffffffffffffffffffffffffffffffffff167f8be0079c531659141344cd1fd0a4f28419497f9722a3daafe3b4186f6b6457e060405160405180910390a35050565b600033905090565b600080fd5b6000819050919050565b6109228161090f565b811461092d57600080fd5b50565b60008135905061093f81610919565b92915050565b600073ffffffffffffffffffffffffffffffffffffffff82169050919050565b600061097082610945565b9050919050565b61098081610965565b811461098b57600080fd5b50565b60008135905061099d81610977565b92915050565b600080604083850312156109ba576109b961090a565b5b60006109c885828601610930565b92505060206109d98582860161098e565b9150509250929050565b6000602082840312156109f9576109f861090a565b5b6000610a0784828501610930565b91505092915050565b610a198161090f565b82525050565b6000602082019050610a346000830184610a10565b92915050565b600060208284031215610a5057610a4f61090a565b5b6000610a5e8482850161098e565b91505092915050565b610a7081610965565b82525050565b6000602082019050610a8b6000830184610a67565b92915050565b600060a082019050610aa66000830188610a10565b610ab36020830187610a10565b610ac06040830186610a10565b610acd6060830185610a10565b610ada6080830184610a10565b9695505050505050565b600080600060608486031215610afd57610afc61090a565b5b6000610b0b86828701610930565b9350506020610b1c86828701610930565b9250506040610b2d8682870161098e565b9150509250925092565b7f4e487b7100000000000000000000000000000000000000000000000000000000600052601160045260246000fd5b6000610b718261090f565b9150610b7c8361090f565b9250828201905080821115610b9457610b93610b37565b5b92915050565b600082825260208201905092915050565b7f4e6f20636f6c6c61746572616c20746f20636c61696d00000000000000000000600082015250565b6000610be1601683610b9a565b9150610bec82610bab565b602082019050919050565b60006020820190508181036000830152610c1081610bd4565b9050919050565b6000610c228261090f565b9150610c2d8361090f565b9250828203905081811115610c4557610c44610b37565b5b92915050565b7f4c6f616e206475726174696f6e206e6f74206578636565646564000000000000600082015250565b6000610c81601a83610b9a565b9150610c8c82610c4b565b602082019050919050565b60006020820190508181036000830152610cb081610c74565b9050919050565b7f52657061796d656e7420616d6f756e74206d757374206265206772656174657260008201527f207468616e207a65726f00000000000000000000000000000000000000000000602082015250565b6000610d13602a83610b9a565b9150610d1e82610cb7565b604082019050919050565b60006020820190508181036000830152610d4281610d06565b9050919050565b7f4c6f616e206475726174696f6e20657863656564656400000000000000000000600082015250565b6000610d7f601683610b9a565b9150610d8a82610d49565b602082019050919050565b60006020820190508181036000830152610dae81610d72565b9050919050565b7f4e6f7420656e6f756768207374616b656420746f6b656e730000000000000000600082015250565b6000610deb601883610b9a565b9150610df682610db5565b602082019050919050565b60006020820190508181036000830152610e1a81610dde565b9050919050565b7f506c7a2072657061792070726576696f7573206c6f616e000000000000000000600082015250565b6000610e57601783610b9a565b9150610e6282610e21565b602082019050919050565b60006020820190508181036000830152610e8681610e4a565b9050919050565b6000610e988261090f565b9150610ea38361090f565b9250828202610eb18161090f565b91508282048414831517610ec857610ec7610b37565b5b5092915050565b7f4e487b7100000000000000000000000000000000000000000000000000000000600052601260045260246000fd5b6000610f098261090f565b9150610f148361090f565b925082610f2457610f23610ecf565b5b82820490509291505056fea2646970667358221220de3ef993cce33e854d3ba4f5db5e4544aaac37ed6a4424ed70472d028305abc264736f6c63430008180033",
  "linkReferences": {},
  "deployedLinkReferences": {}
}