{
  "_format": "hh-sol-artifact-1",
  "contractName": "Borrower",
  "sourceName": "contracts/Borrower.sol",
  "abi": [
    {
      "inputs": [
        {
          "internalType": "uint256",
          "name": "_interestRate",
          "type": "uint256"
        }
      ],
      "stateMutability": "nonpayable",
      "type": "constructor"
    },
    {
      "inputs": [
        {
          "internalType": "address",
          "name": "owner",
          "type": "address"
        }
      ],
      "name": "OwnableInvalidOwner",
      "type": "error"
    },
    {
      "inputs": [
        {
          "internalType": "address",
          "name": "account",
          "type": "address"
        }
      ],
      "name": "OwnableUnauthorizedAccount",
      "type": "error"
    },
    {
      "anonymous": false,
      "inputs": [
        {
          "indexed": true,
          "internalType": "address",
          "name": "previousOwner",
          "type": "address"
        },
        {
          "indexed": true,
          "internalType": "address",
          "name": "newOwner",
          "type": "address"
        }
      ],
      "name": "OwnershipTransferred",
      "type": "event"
    },
    {
      "inputs": [
        {
          "internalType": "uint256",
          "name": "_amount",
          "type": "uint256"
        },
        {
          "internalType": "uint256",
          "name": "_loanDuration",
          "type": "uint256"
        },
        {
          "internalType": "address",
          "name": "_borrowerAddress",
          "type": "address"
        }
      ],
      "name": "borrow",
      "outputs": [],
      "stateMutability": "nonpayable",
      "type": "function"
    },
    {
      "inputs": [
        {
          "internalType": "address",
          "name": "",
          "type": "address"
        }
      ],
      "name": "borrowers",
      "outputs": [
        {
          "internalType": "uint256",
          "name": "stackedTokens",
          "type": "uint256"
        },
        {
          "internalType": "uint256",
          "name": "loanAmount",
          "type": "uint256"
        },
        {
          "internalType": "uint256",
          "name": "repaymentAmount",
          "type": "uint256"
        },
        {
          "internalType": "uint256",
          "name": "borrowTime",
          "type": "uint256"
        },
        {
          "internalType": "uint256",
          "name": "loanDuration",
          "type": "uint256"
        }
      ],
      "stateMutability": "view",
      "type": "function"
    },
    {
      "inputs": [
        {
          "internalType": "address",
          "name": "_borrowerAddress",
          "type": "address"
        }
      ],
      "name": "claimCollateral",
      "outputs": [],
      "stateMutability": "nonpayable",
      "type": "function"
    },
    {
      "inputs": [],
      "name": "collateralAmount",
      "outputs": [
        {
          "internalType": "uint256",
          "name": "",
          "type": "uint256"
        }
      ],
      "stateMutability": "view",
      "type": "function"
    },
    {
      "inputs": [],
      "name": "interestRate",
      "outputs": [
        {
          "internalType": "uint256",
          "name": "",
          "type": "uint256"
        }
      ],
      "stateMutability": "view",
      "type": "function"
    },
    {
      "inputs": [],
      "name": "owner",
      "outputs": [
        {
          "internalType": "address",
          "name": "",
          "type": "address"
        }
      ],
      "stateMutability": "view",
      "type": "function"
    },
    {
      "inputs": [],
      "name": "renounceOwnership",
      "outputs": [],
      "stateMutability": "nonpayable",
      "type": "function"
    },
    {
      "inputs": [
        {
          "internalType": "uint256",
          "name": "_amount",
          "type": "uint256"
        },
        {
          "internalType": "address",
          "name": "_borrowerAddress",
          "type": "address"
        }
      ],
      "name": "repay",
      "outputs": [
        {
          "internalType": "uint256",
          "name": "",
          "type": "uint256"
        }
      ],
      "stateMutability": "nonpayable",
      "type": "function"
    },
    {
      "inputs": [
        {
          "internalType": "address",
          "name": "_borrowerAddress",
          "type": "address"
        }
      ],
      "name": "resetStackedTokens",
      "outputs": [],
      "stateMutability": "nonpayable",
      "type": "function"
    },
    {
      "inputs": [
        {
          "internalType": "uint256",
          "name": "_stackedTokens",
          "type": "uint256"
        },
        {
          "internalType": "address",
          "name": "_borrowerAddress",
          "type": "address"
        }
      ],
      "name": "stakeTokens",
      "outputs": [],
      "stateMutability": "nonpayable",
      "type": "function"
    },
    {
      "inputs": [
        {
          "internalType": "address",
          "name": "newOwner",
          "type": "address"
        }
      ],
      "name": "transferOwnership",
      "outputs": [],
      "stateMutability": "nonpayable",
      "type": "function"
    }
  ],
  "bytecode": "0x60806040523480156200001157600080fd5b5060405162001174380380620011748339818101604052810190620000379190620001d1565b33600073ffffffffffffffffffffffffffffffffffffffff168173ffffffffffffffffffffffffffffffffffffffff1603620000ad5760006040517f1e4fbdf7000000000000000000000000000000000000000000000000000000008152600401620000a4919062000248565b60405180910390fd5b620000be81620000cd60201b60201c565b50806001819055505062000265565b60008060009054906101000a900473ffffffffffffffffffffffffffffffffffffffff169050816000806101000a81548173ffffffffffffffffffffffffffffffffffffffff021916908373ffffffffffffffffffffffffffffffffffffffff1602179055508173ffffffffffffffffffffffffffffffffffffffff168173ffffffffffffffffffffffffffffffffffffffff167f8be0079c531659141344cd1fd0a4f28419497f9722a3daafe3b4186f6b6457e060405160405180910390a35050565b600080fd5b6000819050919050565b620001ab8162000196565b8114620001b757600080fd5b50565b600081519050620001cb81620001a0565b92915050565b600060208284031215620001ea57620001e962000191565b5b6000620001fa84828501620001ba565b91505092915050565b600073ffffffffffffffffffffffffffffffffffffffff82169050919050565b6000620002308262000203565b9050919050565b620002428162000223565b82525050565b60006020820190506200025f600083018462000237565b92915050565b610eff80620002756000396000f3fe608060405234801561001057600080fd5b50600436106100a95760003560e01c80639106175911610071578063910617591461012c57806392d09ceb14610148578063acb7081514610166578063bf5d50c414610196578063d6bda0c0146101ca578063f2fde38b146101e6576100a9565b80630bea440d146100ae578063715018a6146100ca5780637c3a00fd146100d45780638235b284146100f25780638da5cb5b1461010e575b600080fd5b6100c860048036038101906100c3919061096a565b610202565b005b6100d2610267565b005b6100dc61027b565b6040516100e991906109b9565b60405180910390f35b61010c600480360381019061010791906109d4565b610281565b005b6101166103a4565b6040516101239190610a10565b60405180910390f35b610146600480360381019061014191906109d4565b6103cd565b005b610150610420565b60405161015d91906109b9565b60405180910390f35b610180600480360381019061017b919061096a565b610425565b60405161018d91906109b9565b60405180910390f35b6101b060048036038101906101ab91906109d4565b61058b565b6040516101c1959493929190610a2b565b60405180910390f35b6101e460048036038101906101df9190610a7e565b6105c1565b005b61020060048036038101906101fb91906109d4565b6106f8565b005b61020a61077e565b81600260008373ffffffffffffffffffffffffffffffffffffffff1673ffffffffffffffffffffffffffffffffffffffff168152602001908152602001600020600001600082825461025c9190610b00565b925050819055505050565b61026f61077e565b6102796000610805565b565b60015481565b61028961077e565b6000600260008373ffffffffffffffffffffffffffffffffffffffff1673ffffffffffffffffffffffffffffffffffffffff16815260200190815260200160002090506000816000015411610313576040517f08c379a000000000000000000000000000000000000000000000000000000000815260040161030a90610b91565b60405180910390fd5b60008160030154426103259190610bb1565b90508160040154811161036d576040517f08c379a000000000000000000000000000000000000000000000000000000000815260040161036490610c31565b60405180910390fd5b6000826000018190555060008260020181905550600082600301819055506000826004018190555060008260010181905550505050565b60008060009054906101000a900473ffffffffffffffffffffffffffffffffffffffff16905090565b6103d561077e565b6000600260008373ffffffffffffffffffffffffffffffffffffffff1673ffffffffffffffffffffffffffffffffffffffff1681526020019081526020016000206000018190555050565b606481565b600061042f61077e565b60008311610472576040517f08c379a000000000000000000000000000000000000000000000000000000000815260040161046990610cc3565b60405180910390fd5b6000600260008473ffffffffffffffffffffffffffffffffffffffff1673ffffffffffffffffffffffffffffffffffffffff168152602001908152602001600020905060008160030154426104c79190610bb1565b90508160040154811115610510576040517f08c379a000000000000000000000000000000000000000000000000000000000815260040161050790610d2f565b60405180910390fd5b6000826002015486101561054457858360020160008282546105329190610bb1565b92505081905550809350505050610585565b8260020154866105549190610bb1565b9050600083600201819055506000836003018190555060008360040181905550600083600101819055508093505050505b92915050565b60026020528060005260406000206000915090508060000154908060010154908060020154908060030154908060040154905085565b6105c961077e565b6000600260008373ffffffffffffffffffffffffffffffffffffffff1673ffffffffffffffffffffffffffffffffffffffff1681526020019081526020016000209050606481600001541015610654576040517f08c379a000000000000000000000000000000000000000000000000000000000815260040161064b90610d9b565b60405180910390fd5b600081600201541461069b576040517f08c379a000000000000000000000000000000000000000000000000000000000815260040161069290610e07565b60405180910390fd5b42816003018190555082816004018190555083816001018190555064496cebb80083600154866106cb9190610e27565b6106d59190610e27565b6106df9190610e98565b846106ea9190610b00565b816002018190555050505050565b61070061077e565b600073ffffffffffffffffffffffffffffffffffffffff168173ffffffffffffffffffffffffffffffffffffffff16036107725760006040517f1e4fbdf70000000000000000000000000000000000000000000000000000000081526004016107699190610a10565b60405180910390fd5b61077b81610805565b50565b6107866108c9565b73ffffffffffffffffffffffffffffffffffffffff166107a46103a4565b73ffffffffffffffffffffffffffffffffffffffff1614610803576107c76108c9565b6040517f118cdaa70000000000000000000000000000000000000000000000000000000081526004016107fa9190610a10565b60405180910390fd5b565b60008060009054906101000a900473ffffffffffffffffffffffffffffffffffffffff169050816000806101000a81548173ffffffffffffffffffffffffffffffffffffffff021916908373ffffffffffffffffffffffffffffffffffffffff1602179055508173ffffffffffffffffffffffffffffffffffffffff168173ffffffffffffffffffffffffffffffffffffffff167f8be0079c531659141344cd1fd0a4f28419497f9722a3daafe3b4186f6b6457e060405160405180910390a35050565b600033905090565b600080fd5b6000819050919050565b6108e9816108d6565b81146108f457600080fd5b50565b600081359050610906816108e0565b92915050565b600073ffffffffffffffffffffffffffffffffffffffff82169050919050565b60006109378261090c565b9050919050565b6109478161092c565b811461095257600080fd5b50565b6000813590506109648161093e565b92915050565b60008060408385031215610981576109806108d1565b5b600061098f858286016108f7565b92505060206109a085828601610955565b9150509250929050565b6109b3816108d6565b82525050565b60006020820190506109ce60008301846109aa565b92915050565b6000602082840312156109ea576109e96108d1565b5b60006109f884828501610955565b91505092915050565b610a0a8161092c565b82525050565b6000602082019050610a256000830184610a01565b92915050565b600060a082019050610a4060008301886109aa565b610a4d60208301876109aa565b610a5a60408301866109aa565b610a6760608301856109aa565b610a7460808301846109aa565b9695505050505050565b600080600060608486031215610a9757610a966108d1565b5b6000610aa5868287016108f7565b9350506020610ab6868287016108f7565b9250506040610ac786828701610955565b9150509250925092565b7f4e487b7100000000000000000000000000000000000000000000000000000000600052601160045260246000fd5b6000610b0b826108d6565b9150610b16836108d6565b9250828201905080821115610b2e57610b2d610ad1565b5b92915050565b600082825260208201905092915050565b7f4e6f20636f6c6c61746572616c20746f20636c61696d00000000000000000000600082015250565b6000610b7b601683610b34565b9150610b8682610b45565b602082019050919050565b60006020820190508181036000830152610baa81610b6e565b9050919050565b6000610bbc826108d6565b9150610bc7836108d6565b9250828203905081811115610bdf57610bde610ad1565b5b92915050565b7f4c6f616e206475726174696f6e206e6f74206578636565646564000000000000600082015250565b6000610c1b601a83610b34565b9150610c2682610be5565b602082019050919050565b60006020820190508181036000830152610c4a81610c0e565b9050919050565b7f52657061796d656e7420616d6f756e74206d757374206265206772656174657260008201527f207468616e207a65726f00000000000000000000000000000000000000000000602082015250565b6000610cad602a83610b34565b9150610cb882610c51565b604082019050919050565b60006020820190508181036000830152610cdc81610ca0565b9050919050565b7f4c6f616e206475726174696f6e20657863656564656400000000000000000000600082015250565b6000610d19601683610b34565b9150610d2482610ce3565b602082019050919050565b60006020820190508181036000830152610d4881610d0c565b9050919050565b7f4e6f7420656e6f756768207374616b656420746f6b656e730000000000000000600082015250565b6000610d85601883610b34565b9150610d9082610d4f565b602082019050919050565b60006020820190508181036000830152610db481610d78565b9050919050565b7f506c7a2072657061792070726576696f7573206c6f616e000000000000000000600082015250565b6000610df1601783610b34565b9150610dfc82610dbb565b602082019050919050565b60006020820190508181036000830152610e2081610de4565b9050919050565b6000610e32826108d6565b9150610e3d836108d6565b9250828202610e4b816108d6565b91508282048414831517610e6257610e61610ad1565b5b5092915050565b7f4e487b7100000000000000000000000000000000000000000000000000000000600052601260045260246000fd5b6000610ea3826108d6565b9150610eae836108d6565b925082610ebe57610ebd610e69565b5b82820490509291505056fea264697066735822122050a05c127ad84600bff8863d15ae646877cc87be3a828c4de08e2648af5cbf7c64736f6c63430008180033",
  "linkReferences": {},
  "deployedLinkReferences": {}
}