{
  "_format": "hh-sol-artifact-1",
  "contractName": "Borrower",
  "sourceName": "contracts/Borrower.sol",
  "abi": [
    {
      "inputs": [
        {
          "internalType": "uint256",
          "name": "_interestRate",
          "type": "uint256"
        }
      ],
      "stateMutability": "nonpayable",
      "type": "constructor"
    },
    {
      "inputs": [
        {
          "internalType": "address",
          "name": "owner",
          "type": "address"
        }
      ],
      "name": "OwnableInvalidOwner",
      "type": "error"
    },
    {
      "inputs": [
        {
          "internalType": "address",
          "name": "account",
          "type": "address"
        }
      ],
      "name": "OwnableUnauthorizedAccount",
      "type": "error"
    },
    {
      "anonymous": false,
      "inputs": [
        {
          "indexed": true,
          "internalType": "address",
          "name": "previousOwner",
          "type": "address"
        },
        {
          "indexed": true,
          "internalType": "address",
          "name": "newOwner",
          "type": "address"
        }
      ],
      "name": "OwnershipTransferred",
      "type": "event"
    },
    {
      "inputs": [
        {
          "internalType": "uint256",
          "name": "_amount",
          "type": "uint256"
        },
        {
          "internalType": "uint256",
          "name": "_loanDuration",
          "type": "uint256"
        },
        {
          "internalType": "address",
          "name": "_borrowerAddress",
          "type": "address"
        }
      ],
      "name": "borrow",
      "outputs": [],
      "stateMutability": "nonpayable",
      "type": "function"
    },
    {
      "inputs": [
        {
          "internalType": "address",
          "name": "",
          "type": "address"
        }
      ],
      "name": "borrowers",
      "outputs": [
        {
          "internalType": "uint256",
          "name": "stackedTokens",
          "type": "uint256"
        },
        {
          "internalType": "uint256",
          "name": "repaymentAmount",
          "type": "uint256"
        },
        {
          "internalType": "uint256",
          "name": "borrowTime",
          "type": "uint256"
        },
        {
          "internalType": "uint256",
          "name": "loanDuration",
          "type": "uint256"
        }
      ],
      "stateMutability": "view",
      "type": "function"
    },
    {
      "inputs": [
        {
          "internalType": "address",
          "name": "_borrowerAddress",
          "type": "address"
        }
      ],
      "name": "claimCollateral",
      "outputs": [],
      "stateMutability": "nonpayable",
      "type": "function"
    },
    {
      "inputs": [],
      "name": "collateralAmount",
      "outputs": [
        {
          "internalType": "uint256",
          "name": "",
          "type": "uint256"
        }
      ],
      "stateMutability": "view",
      "type": "function"
    },
    {
      "inputs": [],
      "name": "interestRate",
      "outputs": [
        {
          "internalType": "uint256",
          "name": "",
          "type": "uint256"
        }
      ],
      "stateMutability": "view",
      "type": "function"
    },
    {
      "inputs": [],
      "name": "owner",
      "outputs": [
        {
          "internalType": "address",
          "name": "",
          "type": "address"
        }
      ],
      "stateMutability": "view",
      "type": "function"
    },
    {
      "inputs": [],
      "name": "renounceOwnership",
      "outputs": [],
      "stateMutability": "nonpayable",
      "type": "function"
    },
    {
      "inputs": [
        {
          "internalType": "uint256",
          "name": "_amount",
          "type": "uint256"
        },
        {
          "internalType": "address",
          "name": "_borrowerAddress",
          "type": "address"
        }
      ],
      "name": "repay",
      "outputs": [
        {
          "internalType": "bool",
          "name": "",
          "type": "bool"
        },
        {
          "internalType": "uint256",
          "name": "",
          "type": "uint256"
        }
      ],
      "stateMutability": "nonpayable",
      "type": "function"
    },
    {
      "inputs": [
        {
          "internalType": "uint256",
          "name": "_stackedTokens",
          "type": "uint256"
        },
        {
          "internalType": "address",
          "name": "_borrowerAddress",
          "type": "address"
        }
      ],
      "name": "stakeTokens",
      "outputs": [],
      "stateMutability": "nonpayable",
      "type": "function"
    },
    {
      "inputs": [
        {
          "internalType": "address",
          "name": "newOwner",
          "type": "address"
        }
      ],
      "name": "transferOwnership",
      "outputs": [],
      "stateMutability": "nonpayable",
      "type": "function"
    }
  ],
  "bytecode": "0x60806040523480156200001157600080fd5b50604051620010ef380380620010ef8339818101604052810190620000379190620001d1565b33600073ffffffffffffffffffffffffffffffffffffffff168173ffffffffffffffffffffffffffffffffffffffff1603620000ad5760006040517f1e4fbdf7000000000000000000000000000000000000000000000000000000008152600401620000a4919062000248565b60405180910390fd5b620000be81620000cd60201b60201c565b50806001819055505062000265565b60008060009054906101000a900473ffffffffffffffffffffffffffffffffffffffff169050816000806101000a81548173ffffffffffffffffffffffffffffffffffffffff021916908373ffffffffffffffffffffffffffffffffffffffff1602179055508173ffffffffffffffffffffffffffffffffffffffff168173ffffffffffffffffffffffffffffffffffffffff167f8be0079c531659141344cd1fd0a4f28419497f9722a3daafe3b4186f6b6457e060405160405180910390a35050565b600080fd5b6000819050919050565b620001ab8162000196565b8114620001b757600080fd5b50565b600081519050620001cb81620001a0565b92915050565b600060208284031215620001ea57620001e962000191565b5b6000620001fa84828501620001ba565b91505092915050565b600073ffffffffffffffffffffffffffffffffffffffff82169050919050565b6000620002308262000203565b9050919050565b620002428162000223565b82525050565b60006020820190506200025f600083018462000237565b92915050565b610e7a80620002756000396000f3fe608060405234801561001057600080fd5b506004361061009e5760003560e01c806392d09ceb1161006657806392d09ceb14610121578063acb708151461013f578063bf5d50c414610170578063d6bda0c0146101a3578063f2fde38b146101bf5761009e565b80630bea440d146100a3578063715018a6146100bf5780637c3a00fd146100c95780638235b284146100e75780638da5cb5b14610103575b600080fd5b6100bd60048036038101906100b891906108af565b6101db565b005b6100c7610240565b005b6100d1610254565b6040516100de91906108fe565b60405180910390f35b61010160048036038101906100fc9190610919565b61025a565b005b61010b61035f565b6040516101189190610955565b60405180910390f35b610129610388565b60405161013691906108fe565b60405180910390f35b610159600480360381019061015491906108af565b61038d565b60405161016792919061098b565b60405180910390f35b61018a60048036038101906101859190610919565b6104df565b60405161019a94939291906109b4565b60405180910390f35b6101bd60048036038101906101b891906109f9565b61050f565b005b6101d960048036038101906101d49190610919565b61063d565b005b6101e36106c3565b81600260008373ffffffffffffffffffffffffffffffffffffffff1673ffffffffffffffffffffffffffffffffffffffff16815260200190815260200160002060000160008282546102359190610a7b565b925050819055505050565b6102486106c3565b610252600061074a565b565b60015481565b6102626106c3565b6000600260008373ffffffffffffffffffffffffffffffffffffffff1673ffffffffffffffffffffffffffffffffffffffff168152602001908152602001600020905060008160000154116102ec576040517f08c379a00000000000000000000000000000000000000000000000000000000081526004016102e390610b0c565b60405180910390fd5b60008160020154426102fe9190610b2c565b905081600301548111610346576040517f08c379a000000000000000000000000000000000000000000000000000000000815260040161033d90610bac565b60405180910390fd5b6000826000018190555060008260010181905550505050565b60008060009054906101000a900473ffffffffffffffffffffffffffffffffffffffff16905090565b606481565b6000806103986106c3565b600084116103db576040517f08c379a00000000000000000000000000000000000000000000000000000000081526004016103d290610c3e565b60405180910390fd5b6000600260008573ffffffffffffffffffffffffffffffffffffffff1673ffffffffffffffffffffffffffffffffffffffff168152602001908152602001600020905060008160020154426104309190610b2c565b90508160030154811115610479576040517f08c379a000000000000000000000000000000000000000000000000000000000815260040161047090610caa565b60405180910390fd5b600082600101548710156104b1578683600101600082825461049b9190610b2c565b92505081905550600081945094505050506104d8565b8260010154876104c19190610b2c565b905060008360010181905550600181945094505050505b9250929050565b60026020528060005260406000206000915090508060000154908060010154908060020154908060030154905084565b6105176106c3565b6000600260008373ffffffffffffffffffffffffffffffffffffffff1673ffffffffffffffffffffffffffffffffffffffff16815260200190815260200160002090506064816000015410156105a2576040517f08c379a000000000000000000000000000000000000000000000000000000000815260040161059990610d16565b60405180910390fd5b60008160010154146105e9576040517f08c379a00000000000000000000000000000000000000000000000000000000081526004016105e090610d82565b60405180910390fd5b42816002018190555082816003018190555064496cebb80083600154866106109190610da2565b61061a9190610da2565b6106249190610e13565b8461062f9190610a7b565b816001018190555050505050565b6106456106c3565b600073ffffffffffffffffffffffffffffffffffffffff168173ffffffffffffffffffffffffffffffffffffffff16036106b75760006040517f1e4fbdf70000000000000000000000000000000000000000000000000000000081526004016106ae9190610955565b60405180910390fd5b6106c08161074a565b50565b6106cb61080e565b73ffffffffffffffffffffffffffffffffffffffff166106e961035f565b73ffffffffffffffffffffffffffffffffffffffff16146107485761070c61080e565b6040517f118cdaa700000000000000000000000000000000000000000000000000000000815260040161073f9190610955565b60405180910390fd5b565b60008060009054906101000a900473ffffffffffffffffffffffffffffffffffffffff169050816000806101000a81548173ffffffffffffffffffffffffffffffffffffffff021916908373ffffffffffffffffffffffffffffffffffffffff1602179055508173ffffffffffffffffffffffffffffffffffffffff168173ffffffffffffffffffffffffffffffffffffffff167f8be0079c531659141344cd1fd0a4f28419497f9722a3daafe3b4186f6b6457e060405160405180910390a35050565b600033905090565b600080fd5b6000819050919050565b61082e8161081b565b811461083957600080fd5b50565b60008135905061084b81610825565b92915050565b600073ffffffffffffffffffffffffffffffffffffffff82169050919050565b600061087c82610851565b9050919050565b61088c81610871565b811461089757600080fd5b50565b6000813590506108a981610883565b92915050565b600080604083850312156108c6576108c5610816565b5b60006108d48582860161083c565b92505060206108e58582860161089a565b9150509250929050565b6108f88161081b565b82525050565b600060208201905061091360008301846108ef565b92915050565b60006020828403121561092f5761092e610816565b5b600061093d8482850161089a565b91505092915050565b61094f81610871565b82525050565b600060208201905061096a6000830184610946565b92915050565b60008115159050919050565b61098581610970565b82525050565b60006040820190506109a0600083018561097c565b6109ad60208301846108ef565b9392505050565b60006080820190506109c960008301876108ef565b6109d660208301866108ef565b6109e360408301856108ef565b6109f060608301846108ef565b95945050505050565b600080600060608486031215610a1257610a11610816565b5b6000610a208682870161083c565b9350506020610a318682870161083c565b9250506040610a428682870161089a565b9150509250925092565b7f4e487b7100000000000000000000000000000000000000000000000000000000600052601160045260246000fd5b6000610a868261081b565b9150610a918361081b565b9250828201905080821115610aa957610aa8610a4c565b5b92915050565b600082825260208201905092915050565b7f4e6f20636f6c6c61746572616c20746f20636c61696d00000000000000000000600082015250565b6000610af6601683610aaf565b9150610b0182610ac0565b602082019050919050565b60006020820190508181036000830152610b2581610ae9565b9050919050565b6000610b378261081b565b9150610b428361081b565b9250828203905081811115610b5a57610b59610a4c565b5b92915050565b7f4c6f616e206475726174696f6e206e6f74206578636565646564000000000000600082015250565b6000610b96601a83610aaf565b9150610ba182610b60565b602082019050919050565b60006020820190508181036000830152610bc581610b89565b9050919050565b7f52657061796d656e7420616d6f756e74206d757374206265206772656174657260008201527f207468616e207a65726f00000000000000000000000000000000000000000000602082015250565b6000610c28602a83610aaf565b9150610c3382610bcc565b604082019050919050565b60006020820190508181036000830152610c5781610c1b565b9050919050565b7f4c6f616e206475726174696f6e20657863656564656400000000000000000000600082015250565b6000610c94601683610aaf565b9150610c9f82610c5e565b602082019050919050565b60006020820190508181036000830152610cc381610c87565b9050919050565b7f4e6f7420656e6f756768207374616b656420746f6b656e730000000000000000600082015250565b6000610d00601883610aaf565b9150610d0b82610cca565b602082019050919050565b60006020820190508181036000830152610d2f81610cf3565b9050919050565b7f506c7a2072657061792070726576696f7573206c6f616e000000000000000000600082015250565b6000610d6c601783610aaf565b9150610d7782610d36565b602082019050919050565b60006020820190508181036000830152610d9b81610d5f565b9050919050565b6000610dad8261081b565b9150610db88361081b565b9250828202610dc68161081b565b91508282048414831517610ddd57610ddc610a4c565b5b5092915050565b7f4e487b7100000000000000000000000000000000000000000000000000000000600052601260045260246000fd5b6000610e1e8261081b565b9150610e298361081b565b925082610e3957610e38610de4565b5b82820490509291505056fea26469706673582212200638821c785d72d18ea6318046ee6288b1a8c88cc3ecc7034f86dfbcf5d1608764736f6c63430008180033",
  "linkReferences": {},
  "deployedLinkReferences": {}
}